{
	"project/hello1.sol": {
		"hello1": {
			"abi": [
				{
					"inputs": [
						{
							"internalType": "uint256",
							"name": "_message",
							"type": "uint256"
						}
					],
					"payable": false,
					"stateMutability": "nonpayable",
					"type": "constructor"
				},
				{
					"constant": true,
					"inputs": [],
					"name": "getMessage",
					"outputs": [
						{
							"internalType": "uint256",
							"name": "",
							"type": "uint256"
						}
					],
					"payable": false,
					"stateMutability": "view",
					"type": "function"
				},
				{
					"constant": false,
					"inputs": [
						{
							"internalType": "uint256",
							"name": "_message",
							"type": "uint256"
						}
					],
					"name": "setMessage",
					"outputs": [],
					"payable": false,
					"stateMutability": "nonpayable",
					"type": "function"
				}
			],
			"devdoc": {
				"methods": {}
			},
			"evm": {
				"assembly": "    /* \"project/hello1.sol\":27:336  contract hello1 {\r... */\n  mstore(0x40, 0x80)\n    /* \"project/hello1.sol\":80:154  constructor(uint256 _message) public {\r... */\n  callvalue\n    /* \"--CODEGEN--\":8:17   */\n  dup1\n    /* \"--CODEGEN--\":5:7   */\n  iszero\n  tag_1\n  jumpi\n    /* \"--CODEGEN--\":30:31   */\n  0x00\n    /* \"--CODEGEN--\":27:28   */\n  dup1\n    /* \"--CODEGEN--\":20:32   */\n  revert\n    /* \"--CODEGEN--\":5:7   */\ntag_1:\n    /* \"project/hello1.sol\":80:154  constructor(uint256 _message) public {\r... */\n  pop\n  mload(0x40)\n  sub(codesize, bytecodeSize)\n  dup1\n  bytecodeSize\n  dup4\n  codecopy\n  dup2\n  dup2\n  add\n  0x40\n  mstore\n    /* \"--CODEGEN--\":13:15   */\n  0x20\n    /* \"--CODEGEN--\":8:11   */\n  dup2\n    /* \"--CODEGEN--\":5:16   */\n  lt\n    /* \"--CODEGEN--\":2:4   */\n  iszero\n  tag_2\n  jumpi\n    /* \"--CODEGEN--\":29:30   */\n  0x00\n    /* \"--CODEGEN--\":26:27   */\n  dup1\n    /* \"--CODEGEN--\":19:31   */\n  revert\n    /* \"--CODEGEN--\":2:4   */\ntag_2:\n    /* \"project/hello1.sol\":80:154  constructor(uint256 _message) public {\r... */\n  dup2\n  add\n  swap1\n  dup1\n  dup1\n  mload\n  swap1\n  0x20\n  add\n  swap1\n  swap3\n  swap2\n  swap1\n  pop\n  pop\n  pop\n    /* \"project/hello1.sol\":138:146  _message */\n  dup1\n    /* \"project/hello1.sol\":128:135  message */\n  0x00\n    /* \"project/hello1.sol\":128:146  message = _message */\n  dup2\n  swap1\n  sstore\n  pop\n    /* \"project/hello1.sol\":80:154  constructor(uint256 _message) public {\r... */\n  pop\n    /* \"project/hello1.sol\":27:336  contract hello1 {\r... */\n  dataSize(sub_0)\n  dup1\n  dataOffset(sub_0)\n  0x00\n  codecopy\n  0x00\n  return\nstop\n\nsub_0: assembly {\n        /* \"project/hello1.sol\":27:336  contract hello1 {\r... */\n      mstore(0x40, 0x80)\n      callvalue\n        /* \"--CODEGEN--\":8:17   */\n      dup1\n        /* \"--CODEGEN--\":5:7   */\n      iszero\n      tag_1\n      jumpi\n        /* \"--CODEGEN--\":30:31   */\n      0x00\n        /* \"--CODEGEN--\":27:28   */\n      dup1\n        /* \"--CODEGEN--\":20:32   */\n      revert\n        /* \"--CODEGEN--\":5:7   */\n    tag_1:\n        /* \"project/hello1.sol\":27:336  contract hello1 {\r... */\n      pop\n      jumpi(tag_2, lt(calldatasize, 0x04))\n      shr(0xe0, calldataload(0x00))\n      dup1\n      0xce6d41de\n      eq\n      tag_3\n      jumpi\n      dup1\n      0xe1a4378e\n      eq\n      tag_4\n      jumpi\n    tag_2:\n      0x00\n      dup1\n      revert\n        /* \"project/hello1.sol\":160:245  function getMessage() public view returns (uint256) {\r... */\n    tag_3:\n      tag_5\n      tag_6\n      jump\t// in\n    tag_5:\n      mload(0x40)\n      dup1\n      dup3\n      dup2\n      mstore\n      0x20\n      add\n      swap2\n      pop\n      pop\n      mload(0x40)\n      dup1\n      swap2\n      sub\n      swap1\n      return\n        /* \"project/hello1.sol\":251:333  function setMessage(uint256 _message) public {\r... */\n    tag_4:\n      tag_7\n      0x04\n      dup1\n      calldatasize\n      sub\n        /* \"--CODEGEN--\":13:15   */\n      0x20\n        /* \"--CODEGEN--\":8:11   */\n      dup2\n        /* \"--CODEGEN--\":5:16   */\n      lt\n        /* \"--CODEGEN--\":2:4   */\n      iszero\n      tag_8\n      jumpi\n        /* \"--CODEGEN--\":29:30   */\n      0x00\n        /* \"--CODEGEN--\":26:27   */\n      dup1\n        /* \"--CODEGEN--\":19:31   */\n      revert\n        /* \"--CODEGEN--\":2:4   */\n    tag_8:\n        /* \"project/hello1.sol\":251:333  function setMessage(uint256 _message) public {\r... */\n      dup2\n      add\n      swap1\n      dup1\n      dup1\n      calldataload\n      swap1\n      0x20\n      add\n      swap1\n      swap3\n      swap2\n      swap1\n      pop\n      pop\n      pop\n      tag_9\n      jump\t// in\n    tag_7:\n      stop\n        /* \"project/hello1.sol\":160:245  function getMessage() public view returns (uint256) {\r... */\n    tag_6:\n        /* \"project/hello1.sol\":203:210  uint256 */\n      0x00\n        /* \"project/hello1.sol\":230:237  message */\n      dup1\n      sload\n        /* \"project/hello1.sol\":223:237  return message */\n      swap1\n      pop\n        /* \"project/hello1.sol\":160:245  function getMessage() public view returns (uint256) {\r... */\n      swap1\n      jump\t// out\n        /* \"project/hello1.sol\":251:333  function setMessage(uint256 _message) public {\r... */\n    tag_9:\n        /* \"project/hello1.sol\":317:325  _message */\n      dup1\n        /* \"project/hello1.sol\":307:314  message */\n      0x00\n        /* \"project/hello1.sol\":307:325  message = _message */\n      dup2\n      swap1\n      sstore\n      pop\n        /* \"project/hello1.sol\":251:333  function setMessage(uint256 _message) public {\r... */\n      pop\n      jump\t// out\n\n    auxdata: 0xa265627a7a7231582032b50dca6244a1822f5095ece7c06ee1829d24dde76749455a76373b057b071564736f6c63430005110032\n}\n",
				"bytecode": {
					"linkReferences": {},
					"object": "608060405234801561001057600080fd5b506040516101203803806101208339818101604052602081101561003357600080fd5b8101908080519060200190929190505050806000819055505060c68061005a6000396000f3fe6080604052348015600f57600080fd5b506004361060325760003560e01c8063ce6d41de146037578063e1a4378e146053575b600080fd5b603d607e565b6040518082815260200191505060405180910390f35b607c60048036036020811015606757600080fd5b81019080803590602001909291905050506087565b005b60008054905090565b806000819055505056fea265627a7a7231582032b50dca6244a1822f5095ece7c06ee1829d24dde76749455a76373b057b071564736f6c63430005110032",
					"opcodes": "PUSH1 0x80 PUSH1 0x40 MSTORE CALLVALUE DUP1 ISZERO PUSH2 0x10 JUMPI PUSH1 0x0 DUP1 REVERT JUMPDEST POP PUSH1 0x40 MLOAD PUSH2 0x120 CODESIZE SUB DUP1 PUSH2 0x120 DUP4 CODECOPY DUP2 DUP2 ADD PUSH1 0x40 MSTORE PUSH1 0x20 DUP2 LT ISZERO PUSH2 0x33 JUMPI PUSH1 0x0 DUP1 REVERT JUMPDEST DUP2 ADD SWAP1 DUP1 DUP1 MLOAD SWAP1 PUSH1 0x20 ADD SWAP1 SWAP3 SWAP2 SWAP1 POP POP POP DUP1 PUSH1 0x0 DUP2 SWAP1 SSTORE POP POP PUSH1 0xC6 DUP1 PUSH2 0x5A PUSH1 0x0 CODECOPY PUSH1 0x0 RETURN INVALID PUSH1 0x80 PUSH1 0x40 MSTORE CALLVALUE DUP1 ISZERO PUSH1 0xF JUMPI PUSH1 0x0 DUP1 REVERT JUMPDEST POP PUSH1 0x4 CALLDATASIZE LT PUSH1 0x32 JUMPI PUSH1 0x0 CALLDATALOAD PUSH1 0xE0 SHR DUP1 PUSH4 0xCE6D41DE EQ PUSH1 0x37 JUMPI DUP1 PUSH4 0xE1A4378E EQ PUSH1 0x53 JUMPI JUMPDEST PUSH1 0x0 DUP1 REVERT JUMPDEST PUSH1 0x3D PUSH1 0x7E JUMP JUMPDEST PUSH1 0x40 MLOAD DUP1 DUP3 DUP2 MSTORE PUSH1 0x20 ADD SWAP2 POP POP PUSH1 0x40 MLOAD DUP1 SWAP2 SUB SWAP1 RETURN JUMPDEST PUSH1 0x7C PUSH1 0x4 DUP1 CALLDATASIZE SUB PUSH1 0x20 DUP2 LT ISZERO PUSH1 0x67 JUMPI PUSH1 0x0 DUP1 REVERT JUMPDEST DUP2 ADD SWAP1 DUP1 DUP1 CALLDATALOAD SWAP1 PUSH1 0x20 ADD SWAP1 SWAP3 SWAP2 SWAP1 POP POP POP PUSH1 0x87 JUMP JUMPDEST STOP JUMPDEST PUSH1 0x0 DUP1 SLOAD SWAP1 POP SWAP1 JUMP JUMPDEST DUP1 PUSH1 0x0 DUP2 SWAP1 SSTORE POP POP JUMP INVALID LOG2 PUSH6 0x627A7A723158 KECCAK256 ORIGIN 0xB5 0xD 0xCA PUSH3 0x44A182 0x2F POP SWAP6 0xEC 0xE7 0xC0 PUSH15 0xE1829D24DDE76749455A76373B057B SMOD ISZERO PUSH5 0x736F6C6343 STOP SDIV GT STOP ORIGIN "
				},
				"gasEstimates": {
					"creation": {
						"codeDepositCost": "39600",
						"executionCost": "infinite",
						"totalCost": "infinite"
					},
					"external": {
						"getMessage()": "991",
						"setMessage(uint256)": "20242"
					}
				},
				"methodIdentifiers": {
					"getMessage()": "ce6d41de",
					"setMessage(uint256)": "e1a4378e"
				}
			},
			"storageLayout": {
				"storage": [
					{
						"astId": 3,
						"contract": "project/hello1.sol:hello1",
						"label": "message",
						"offset": 0,
						"slot": "0",
						"type": "t_uint256"
					}
				],
				"types": {
					"t_uint256": {
						"encoding": "inplace",
						"label": "uint256",
						"numberOfBytes": "32"
					}
				}
			},
			"userdoc": {
				"methods": {}
			}
		}
	}
}