{
	"data": {
		"bytecode": {
			"linkReferences": {},
			"object": "608060405234801561001057600080fd5b50610365806100206000396000f300608060405260043610610041576000357c0100000000000000000000000000000000000000000000000000000000900463ffffffff168063cb4799f214610046575b600080fd5b34801561005257600080fd5b506100b760048036038101908080359060200190929190803590602001908201803590602001908080601f01602080910402602001604051908101604052809392919081815260200183838082843782019150505050505091929192905050506100fc565b6040518083600460200280838360005b838110156100e25780820151818401526020810190506100c7565b505050509050018281526020019250505060405180910390f35b610104610316565b6000600184141561015b577f48656c6c6f20576f726c6421203a44000000000000000000000000000000000082600060048110151561013f57fe5b60200201906000191690816000191681525050600f905061030f565b60028414156101f3577f4920776f756c6420646566696e6974656c792063686f6f73652061206d65646982600060048110151561019457fe5b602002019060001916908160001916815250507f756d206c656e67746820737472696e672e0000000000000000000000000000008260016004811015156101d757fe5b602002019060001916908160001916815250506031905061030e565b600384141561030d577f4c6f72656d20697073756d20646f6c6f722073697420616d65742c206d69206582600060048110151561022c57fe5b602002019060001916908160001916815250507f737420616363756d73616e2064617069627573206175677565206c6f72656d2c82600160048110151561026f57fe5b602002019060001916908160001916815250507f2074726973746971756520766573746962756c756d2069642c206c696265726f8260026004811015156102b257fe5b602002019060001916908160001916815250507f207375736369706974207661726975732073617069656e20616c697175616d2e8260036004811015156102f557fe5b60200201906000191690816000191681525050608090505b5b5b9250929050565b6080604051908101604052806004906020820280388339808201915050905050905600a165627a7a723058205699213e83f30c8fc6f8e5d7d7b5a335029f9e3a2c59f2463871947cfaa47b060029",
			"opcodes": "PUSH1 0x80 PUSH1 0x40 MSTORE CALLVALUE DUP1 ISZERO PUSH2 0x10 JUMPI PUSH1 0x0 DUP1 REVERT JUMPDEST POP PUSH2 0x365 DUP1 PUSH2 0x20 PUSH1 0x0 CODECOPY PUSH1 0x0 RETURN STOP PUSH1 0x80 PUSH1 0x40 MSTORE PUSH1 0x4 CALLDATASIZE LT PUSH2 0x41 JUMPI PUSH1 0x0 CALLDATALOAD PUSH29 0x100000000000000000000000000000000000000000000000000000000 SWAP1 DIV PUSH4 0xFFFFFFFF AND DUP1 PUSH4 0xCB4799F2 EQ PUSH2 0x46 JUMPI JUMPDEST PUSH1 0x0 DUP1 REVERT JUMPDEST CALLVALUE DUP1 ISZERO PUSH2 0x52 JUMPI PUSH1 0x0 DUP1 REVERT JUMPDEST POP PUSH2 0xB7 PUSH1 0x4 DUP1 CALLDATASIZE SUB DUP2 ADD SWAP1 DUP1 DUP1 CALLDATALOAD SWAP1 PUSH1 0x20 ADD SWAP1 SWAP3 SWAP2 SWAP1 DUP1 CALLDATALOAD SWAP1 PUSH1 0x20 ADD SWAP1 DUP3 ADD DUP1 CALLDATALOAD SWAP1 PUSH1 0x20 ADD SWAP1 DUP1 DUP1 PUSH1 0x1F ADD PUSH1 0x20 DUP1 SWAP2 DIV MUL PUSH1 0x20 ADD PUSH1 0x40 MLOAD SWAP1 DUP2 ADD PUSH1 0x40 MSTORE DUP1 SWAP4 SWAP3 SWAP2 SWAP1 DUP2 DUP2 MSTORE PUSH1 0x20 ADD DUP4 DUP4 DUP1 DUP3 DUP5 CALLDATACOPY DUP3 ADD SWAP2 POP POP POP POP POP POP SWAP2 SWAP3 SWAP2 SWAP3 SWAP1 POP POP POP PUSH2 0xFC JUMP JUMPDEST PUSH1 0x40 MLOAD DUP1 DUP4 PUSH1 0x4 PUSH1 0x20 MUL DUP1 DUP4 DUP4 PUSH1 0x0 JUMPDEST DUP4 DUP2 LT ISZERO PUSH2 0xE2 JUMPI DUP1 DUP3 ADD MLOAD DUP2 DUP5 ADD MSTORE PUSH1 0x20 DUP2 ADD SWAP1 POP PUSH2 0xC7 JUMP JUMPDEST POP POP POP POP SWAP1 POP ADD DUP3 DUP2 MSTORE PUSH1 0x20 ADD SWAP3 POP POP POP PUSH1 0x40 MLOAD DUP1 SWAP2 SUB SWAP1 RETURN JUMPDEST PUSH2 0x104 PUSH2 0x316 JUMP JUMPDEST PUSH1 0x0 PUSH1 0x1 DUP5 EQ ISZERO PUSH2 0x15B JUMPI PUSH32 0x48656C6C6F20576F726C6421203A440000000000000000000000000000000000 DUP3 PUSH1 0x0 PUSH1 0x4 DUP2 LT ISZERO ISZERO PUSH2 0x13F JUMPI INVALID JUMPDEST PUSH1 0x20 MUL ADD SWAP1 PUSH1 0x0 NOT AND SWAP1 DUP2 PUSH1 0x0 NOT AND DUP2 MSTORE POP POP PUSH1 0xF SWAP1 POP PUSH2 0x30F JUMP JUMPDEST PUSH1 0x2 DUP5 EQ ISZERO PUSH2 0x1F3 JUMPI PUSH32 0x4920776F756C6420646566696E6974656C792063686F6F73652061206D656469 DUP3 PUSH1 0x0 PUSH1 0x4 DUP2 LT ISZERO ISZERO PUSH2 0x194 JUMPI INVALID JUMPDEST PUSH1 0x20 MUL ADD SWAP1 PUSH1 0x0 NOT AND SWAP1 DUP2 PUSH1 0x0 NOT AND DUP2 MSTORE POP POP PUSH32 0x756D206C656E67746820737472696E672E000000000000000000000000000000 DUP3 PUSH1 0x1 PUSH1 0x4 DUP2 LT ISZERO ISZERO PUSH2 0x1D7 JUMPI INVALID JUMPDEST PUSH1 0x20 MUL ADD SWAP1 PUSH1 0x0 NOT AND SWAP1 DUP2 PUSH1 0x0 NOT AND DUP2 MSTORE POP POP PUSH1 0x31 SWAP1 POP PUSH2 0x30E JUMP JUMPDEST PUSH1 0x3 DUP5 EQ ISZERO PUSH2 0x30D JUMPI PUSH32 0x4C6F72656D20697073756D20646F6C6F722073697420616D65742C206D692065 DUP3 PUSH1 0x0 PUSH1 0x4 DUP2 LT ISZERO ISZERO PUSH2 0x22C JUMPI INVALID JUMPDEST PUSH1 0x20 MUL ADD SWAP1 PUSH1 0x0 NOT AND SWAP1 DUP2 PUSH1 0x0 NOT AND DUP2 MSTORE POP POP PUSH32 0x737420616363756D73616E2064617069627573206175677565206C6F72656D2C DUP3 PUSH1 0x1 PUSH1 0x4 DUP2 LT ISZERO ISZERO PUSH2 0x26F JUMPI INVALID JUMPDEST PUSH1 0x20 MUL ADD SWAP1 PUSH1 0x0 NOT AND SWAP1 DUP2 PUSH1 0x0 NOT AND DUP2 MSTORE POP POP PUSH32 0x2074726973746971756520766573746962756C756D2069642C206C696265726F DUP3 PUSH1 0x2 PUSH1 0x4 DUP2 LT ISZERO ISZERO PUSH2 0x2B2 JUMPI INVALID JUMPDEST PUSH1 0x20 MUL ADD SWAP1 PUSH1 0x0 NOT AND SWAP1 DUP2 PUSH1 0x0 NOT AND DUP2 MSTORE POP POP PUSH32 0x207375736369706974207661726975732073617069656E20616C697175616D2E DUP3 PUSH1 0x3 PUSH1 0x4 DUP2 LT ISZERO ISZERO PUSH2 0x2F5 JUMPI INVALID JUMPDEST PUSH1 0x20 MUL ADD SWAP1 PUSH1 0x0 NOT AND SWAP1 DUP2 PUSH1 0x0 NOT AND DUP2 MSTORE POP POP PUSH1 0x80 SWAP1 POP JUMPDEST JUMPDEST JUMPDEST SWAP3 POP SWAP3 SWAP1 POP JUMP JUMPDEST PUSH1 0x80 PUSH1 0x40 MLOAD SWAP1 DUP2 ADD PUSH1 0x40 MSTORE DUP1 PUSH1 0x4 SWAP1 PUSH1 0x20 DUP3 MUL DUP1 CODESIZE DUP4 CODECOPY DUP1 DUP3 ADD SWAP2 POP POP SWAP1 POP POP SWAP1 JUMP STOP LOG1 PUSH6 0x627A7A723058 KECCAK256 JUMP SWAP10 0x21 RETURNDATACOPY DUP4 RETURN 0xc DUP16 0xc6 0xf8 0xe5 0xd7 0xd7 0xb5 LOG3 CALLDATALOAD MUL SWAP16 SWAP15 GASPRICE 0x2c MSIZE CALLCODE 0x46 CODESIZE PUSH18 0x947CFAA47B06002900000000000000000000 "
		},
		"gasEstimates": {
			"creation": {
				"codeDepositCost": "173800",
				"executionCost": "220",
				"totalCost": "174020"
			},
			"external": {
				"getMetadata(uint256,string)": "infinite"
			}
		},
		"methodIdentifiers": {
			"getMetadata(uint256,string)": "cb4799f2"
		}
	},
	"abi": [
		{
			"constant": true,
			"inputs": [
				{
					"name": "_tokenId",
					"type": "uint256"
				},
				{
					"name": "",
					"type": "string"
				}
			],
			"name": "getMetadata",
			"outputs": [
				{
					"name": "buffer",
					"type": "bytes32[4]"
				},
				{
					"name": "count",
					"type": "uint256"
				}
			],
			"payable": false,
			"stateMutability": "view",
			"type": "function"
		}
	]
}